:100000001DC035C034C060C032C031C030C02FC048
:100010005DC12DC02CC02BC02AC029C028C027C05C
:1000200026C025C024C0415474696E7932333133FF
:100030002072756E6E696E670D0A000011241FBE76
:10004000CFEDCDBF10E0A0E6B0E0E6EEF3E002C0F9
:1000500005900D92AA36B107D9F710E0AAE6B0E0F4
:1000600001C01D92A43CB107E1F702D0BAC1C8CFCC
:100070001F93D4D082B3806682BBC8D0789486E2C6
:1000800090E00FD1809170008823E1F3F8941091F3
:10009000700060916C0070916D0080916E00909185
:1000A0006F0010927000789441E750E02AE030E051
:1000B00034D1EBD0123019F480E690E002C086E62D
:1000C00090E0E3D0DDD0DECF1F920F920FB60F92FB
:1000D00011242F933F934F935F936F937F938F934D
:1000E0009F93AF93BF9320B344B555B57894809157
:1000F0007B0090917C00BA01681B790BCB01509377
:100100007C0040937B0022952695277020952170D6
:1001100030E040E050E08050964108F056C077E172
:10012000220F331F441F551F7A95D1F7809180000D
:1001300090918100A0918200B0918300B695A7951F
:1001400097958795282B392B4A2B5B2B2093800082
:1001500030938100409382005093830080917D0012
:100160008F5F80937D00883109F041C0F894DA01F7
:10017000C901AF70B07080936C0090936D00A09334
:100180006E00B0936F0044FF17C080916C00909197
:100190006D00A0916E00B0916F00B095A095909504
:1001A00081959F4FAF4FBF4F80936C0090936D0030
:1001B000A0936E00B0936F0047FF02C082E001C0C1
:1001C00081E080937000789412C087E1220F331F82
:1001D000441F551F8A95D1F72093800030938100EA
:1001E000409382005093830081E080937D00BF9113
:1001F000AF919F918F917F916F915F914F913F91BF
:100200002F910F900FBE0F901F90189582E08EBD1A
:1002100088E088BF89B7886089BF08959FB712B802
:1002200080E189B9F89488E08AB986E083B98CB115
:100230005F99FDCF80EC8BB99FBF0895282F9091D7
:100240006A009F5F9F7380916B009817E1F3E92F1D
:10025000F0E0EC57FF4F208390936A00559A089581
:10026000805D8A3308F0895FE9DF08951F93182FB6
:1002700082958F70F5DF812F8F70F2DF1F910895C7
:100280008DE0DCDF8AE0DADF0895CF93DF93EC01C5
:1002900002C02196D3DF88818823D9F7DF91CF91DF
:1002A0000895CF93DF93EC0104C02196F901849166
:1002B000C5DF9E01FE0184918823B9F7DF91CF91BC
:1002C000089510926B0010926A0008951F920F9289
:1002D0000FB60F9211248F939F93EF93FF939091FA
:1002E0006A0080916B00981771F080916B008F5FAE
:1002F0008F7380936B00E0916B00F0E0EC57FF4F41
:1003000080818CB901C05598FF91EF919F918F9199
:100310000F900FBE0F901F901895FA01CF93FF9387
:10032000EF9322303CF125322CF5C22FE894CA30ED
:1003300049F497FB3EF490958095709561957F4FB9
:100340008F4F9F4F2C2F332744275527FF93EF9331
:1003500026D0EF91FF91605D6A330CF0695D619387
:10036000B901CA01605070408040904059F716F4BE
:10037000CDE2C19310828F919F91CF9100C0DC019B
:10038000FC01672F71917723E1F7329704C07C91CC
:100390006D9370836291AE17BF07C8F30895A1E211
:1003A0001A2EAA1BBB1BFD010DC0AA1FBB1FEE1FEF
:1003B000FF1FA217B307E407F50720F0A21BB30B3A
:1003C000E40BF50B661F771F881F991F1A9469F7B6
:1003D00060957095809590959B01AC01BD01CF0112
:0603E0000895F894FFCF20
:0A03E60020696E636800206D6D0051
:00000001FF
