:1000000019C033C032C031C030C02FC02EC02DC087
:100010002CC02BC02AC029C047C027C026C025C07D
:1000200024C023C022C048656C6C6F20576F726C6F
:1000300064210A0011241FBECFE5D4E0DEBFCDBF8E
:1000400010E0A0E6B0E0E2EFF0E002C005900D9213
:10005000A236B107D9F710E0A2E6B0E001C01D92C8
:10006000A436B107E1F70AD042C0CACF10BC89E17B
:1000700089B988E18AB986E880BD089510BC89E114
:1000800089B988E18AB986E880BD789426E230E0B3
:10009000809160008823E1F3109260003093630048
:1000A00020936200559AF4CF1F920F920FB60F92D1
:1000B00011248F93EF93FF93E0916200F09163001E
:1000C0003196F0936300E093620031978491882326
:1000D00011F08CB904C081E0809360005598FF91C5
:1000E000EF918F910F900FBE0F901F901895F8947D
:0200F000FFCF40
:0200F20001000B
:00000001FF
